{
  "contractName": "kycContract",
  "abi": [
    {
      "anonymous": false,
      "inputs": [
        {
          "indexed": false,
          "internalType": "address",
          "name": "accountAddress",
          "type": "address"
        },
        {
          "indexed": false,
          "internalType": "uint256",
          "name": "accountLockedBalance",
          "type": "uint256"
        },
        {
          "indexed": false,
          "internalType": "bool",
          "name": "accountKycStatus",
          "type": "bool"
        },
        {
          "indexed": false,
          "internalType": "bool",
          "name": "isContractAccount",
          "type": "bool"
        },
        {
          "indexed": false,
          "internalType": "uint256",
          "name": "accountTxCount",
          "type": "uint256"
        }
      ],
      "name": "accountRemoved",
      "type": "event"
    },
    {
      "anonymous": false,
      "inputs": [
        {
          "indexed": false,
          "internalType": "address",
          "name": "newAccountAddress",
          "type": "address"
        },
        {
          "indexed": false,
          "internalType": "uint256",
          "name": "newAccountLockedBalance",
          "type": "uint256"
        },
        {
          "indexed": false,
          "internalType": "bool",
          "name": "newAccountkycStatus",
          "type": "bool"
        },
        {
          "indexed": false,
          "internalType": "bool",
          "name": "isContractAccount",
          "type": "bool"
        },
        {
          "indexed": false,
          "internalType": "uint256",
          "name": "accountTxCount",
          "type": "uint256"
        }
      ],
      "name": "accountUpdated",
      "type": "event"
    },
    {
      "anonymous": false,
      "inputs": [
        {
          "indexed": false,
          "internalType": "address",
          "name": "accountAddress",
          "type": "address"
        },
        {
          "indexed": false,
          "internalType": "uint256",
          "name": "unlockedValue",
          "type": "uint256"
        },
        {
          "indexed": false,
          "internalType": "uint256",
          "name": "lockedBalance",
          "type": "uint256"
        }
      ],
      "name": "balanceUnlocked",
      "type": "event"
    },
    {
      "anonymous": false,
      "inputs": [
        {
          "indexed": false,
          "internalType": "address",
          "name": "newAccountAddress",
          "type": "address"
        },
        {
          "indexed": false,
          "internalType": "uint256",
          "name": "newAccountLockedBalance",
          "type": "uint256"
        },
        {
          "indexed": false,
          "internalType": "bool",
          "name": "newAccountkycStatus",
          "type": "bool"
        },
        {
          "indexed": false,
          "internalType": "bool",
          "name": "isContractAccount",
          "type": "bool"
        }
      ],
      "name": "newAccountListed",
      "type": "event"
    },
    {
      "anonymous": false,
      "inputs": [
        {
          "indexed": false,
          "internalType": "address",
          "name": "senderAccountAddress",
          "type": "address"
        },
        {
          "indexed": false,
          "internalType": "address",
          "name": "recieptAccountAddress",
          "type": "address"
        },
        {
          "indexed": false,
          "internalType": "uint256",
          "name": "transferredValue",
          "type": "uint256"
        },
        {
          "indexed": false,
          "internalType": "uint256",
          "name": "accountTxCount",
          "type": "uint256"
        }
      ],
      "name": "transferSuccess",
      "type": "event"
    },
    {
      "payable": true,
      "stateMutability": "payable",
      "type": "fallback"
    },
    {
      "constant": false,
      "inputs": [
        {
          "internalType": "uint256",
          "name": "backValue",
          "type": "uint256"
        }
      ],
      "name": "transferBack",
      "outputs": [],
      "payable": false,
      "stateMutability": "nonpayable",
      "type": "function"
    },
    {
      "constant": false,
      "inputs": [],
      "name": "removeAccount",
      "outputs": [],
      "payable": false,
      "stateMutability": "nonpayable",
      "type": "function"
    },
    {
      "constant": true,
      "inputs": [],
      "name": "userView",
      "outputs": [
        {
          "internalType": "address",
          "name": "",
          "type": "address"
        },
        {
          "internalType": "uint256",
          "name": "",
          "type": "uint256"
        },
        {
          "internalType": "bool",
          "name": "",
          "type": "bool"
        },
        {
          "internalType": "bool",
          "name": "",
          "type": "bool"
        },
        {
          "internalType": "uint256",
          "name": "",
          "type": "uint256"
        }
      ],
      "payable": false,
      "stateMutability": "view",
      "type": "function"
    },
    {
      "constant": true,
      "inputs": [
        {
          "internalType": "address",
          "name": "target",
          "type": "address"
        }
      ],
      "name": "kycCheck",
      "outputs": [
        {
          "internalType": "bool",
          "name": "",
          "type": "bool"
        }
      ],
      "payable": false,
      "stateMutability": "view",
      "type": "function"
    },
    {
      "constant": false,
      "inputs": [
        {
          "internalType": "address",
          "name": "destination",
          "type": "address"
        },
        {
          "internalType": "uint256",
          "name": "sendValue",
          "type": "uint256"
        }
      ],
      "name": "secureTransfer",
      "outputs": [],
      "payable": false,
      "stateMutability": "nonpayable",
      "type": "function"
    }
  ],
  "bytecode": "0x608060405234801561001057600080fd5b50611373806100206000396000f3fe60806040526004361061004a5760003560e01c80632517880c1461005657806375beca08146100d15780639b0763e8146100e8578063d8d1f38f14610151578063eae7236f146101ac575b61005433346101e7565b005b34801561006257600080fd5b5061006b61056e565b604051808673ffffffffffffffffffffffffffffffffffffffff1673ffffffffffffffffffffffffffffffffffffffff16815260200185815260200184151515158152602001831515151581526020018281526020019550505050505060405180910390f35b3480156100dd57600080fd5b506100e661070b565b005b3480156100f457600080fd5b506101376004803603602081101561010b57600080fd5b81019080803573ffffffffffffffffffffffffffffffffffffffff169060200190929190505050610acc565b604051808215151515815260200191505060405180910390f35b34801561015d57600080fd5b506101aa6004803603604081101561017457600080fd5b81019080803573ffffffffffffffffffffffffffffffffffffffff16906020019092919080359060200190929190505050610b24565b005b3480156101b857600080fd5b506101e5600480360360208110156101cf57600080fd5b8101908080359060200190929190505050610fb2565b005b8173ffffffffffffffffffffffffffffffffffffffff163273ffffffffffffffffffffffffffffffffffffffff1614156103c5576040518060a001604052808373ffffffffffffffffffffffffffffffffffffffff16815260200182815260200160011515815260200160001515815260200160008152506000808473ffffffffffffffffffffffffffffffffffffffff1673ffffffffffffffffffffffffffffffffffffffff16815260200190815260200160002060008201518160000160006101000a81548173ffffffffffffffffffffffffffffffffffffffff021916908373ffffffffffffffffffffffffffffffffffffffff1602179055506020820151816001015560408201518160020160006101000a81548160ff02191690831515021790555060608201518160020160016101000a81548160ff021916908315150217905550608082015181600301559050507f434e792fad67bb224bf290b1795ad1600fd000a2c981a3d62109cc6cd757beb1828260016000604051808573ffffffffffffffffffffffffffffffffffffffff1673ffffffffffffffffffffffffffffffffffffffff168152602001848152602001831515151581526020018215151515815260200194505050505060405180910390a161056a565b6040518060a001604052808373ffffffffffffffffffffffffffffffffffffffff16815260200182815260200160011515815260200160011515815260200160008152506000808473ffffffffffffffffffffffffffffffffffffffff1673ffffffffffffffffffffffffffffffffffffffff16815260200190815260200160002060008201518160000160006101000a81548173ffffffffffffffffffffffffffffffffffffffff021916908373ffffffffffffffffffffffffffffffffffffffff1602179055506020820151816001015560408201518160020160006101000a81548160ff02191690831515021790555060608201518160020160016101000a81548160ff021916908315150217905550608082015181600301559050507f434e792fad67bb224bf290b1795ad1600fd000a2c981a3d62109cc6cd757beb18282600180604051808573ffffffffffffffffffffffffffffffffffffffff1673ffffffffffffffffffffffffffffffffffffffff168152602001848152602001831515151581526020018215151515815260200194505050505060405180910390a15b5050565b60008060008060008060003373ffffffffffffffffffffffffffffffffffffffff1673ffffffffffffffffffffffffffffffffffffffff16815260200190815260200160002060000160009054906101000a900473ffffffffffffffffffffffffffffffffffffffff166000803373ffffffffffffffffffffffffffffffffffffffff1673ffffffffffffffffffffffffffffffffffffffff168152602001908152602001600020600101546000803373ffffffffffffffffffffffffffffffffffffffff1673ffffffffffffffffffffffffffffffffffffffff16815260200190815260200160002060020160009054906101000a900460ff166000803373ffffffffffffffffffffffffffffffffffffffff1673ffffffffffffffffffffffffffffffffffffffff16815260200190815260200160002060020160019054906101000a900460ff166000803373ffffffffffffffffffffffffffffffffffffffff1673ffffffffffffffffffffffffffffffffffffffff16815260200190815260200160002060030154945094509450945094509091929394565b60008060003373ffffffffffffffffffffffffffffffffffffffff1673ffffffffffffffffffffffffffffffffffffffff16815260200190815260200160002060010154146107a5576040517f08c379a000000000000000000000000000000000000000000000000000000000815260040180806020018281038252602f8152602001806112e2602f913960400191505060405180910390fd5b7f04f143a43d23d71d4bfcab77e2e7e4cc3d1e495bf9ee8a7243e2566635cfe2c7336000803373ffffffffffffffffffffffffffffffffffffffff1673ffffffffffffffffffffffffffffffffffffffff168152602001908152602001600020600101546000803373ffffffffffffffffffffffffffffffffffffffff1673ffffffffffffffffffffffffffffffffffffffff16815260200190815260200160002060020160009054906101000a900460ff166000803373ffffffffffffffffffffffffffffffffffffffff1673ffffffffffffffffffffffffffffffffffffffff16815260200190815260200160002060020160019054906101000a900460ff166000803373ffffffffffffffffffffffffffffffffffffffff1673ffffffffffffffffffffffffffffffffffffffff16815260200190815260200160002060030154604051808673ffffffffffffffffffffffffffffffffffffffff1673ffffffffffffffffffffffffffffffffffffffff16815260200185815260200184151515158152602001831515151581526020018281526020019550505050505060405180910390a160008060003373ffffffffffffffffffffffffffffffffffffffff1673ffffffffffffffffffffffffffffffffffffffff16815260200190815260200160002060000160006101000a81548173ffffffffffffffffffffffffffffffffffffffff021916908373ffffffffffffffffffffffffffffffffffffffff16021790555060008060003373ffffffffffffffffffffffffffffffffffffffff1673ffffffffffffffffffffffffffffffffffffffff16815260200190815260200160002060020160006101000a81548160ff02191690831515021790555060008060003373ffffffffffffffffffffffffffffffffffffffff1673ffffffffffffffffffffffffffffffffffffffff16815260200190815260200160002060020160016101000a81548160ff02191690831515021790555060008060003373ffffffffffffffffffffffffffffffffffffffff1673ffffffffffffffffffffffffffffffffffffffff16815260200190815260200160002060030181905550565b60008060008373ffffffffffffffffffffffffffffffffffffffff1673ffffffffffffffffffffffffffffffffffffffff16815260200190815260200160002060020160009054906101000a900460ff169050919050565b806000803373ffffffffffffffffffffffffffffffffffffffff1673ffffffffffffffffffffffffffffffffffffffff168152602001908152602001600020600101541015610bbe576040517f08c379a000000000000000000000000000000000000000000000000000000000815260040180806020018281038252602d8152602001806112b5602d913960400191505060405180910390fd5b3073ffffffffffffffffffffffffffffffffffffffff16639b0763e8836040518263ffffffff1660e01b8152600401808273ffffffffffffffffffffffffffffffffffffffff1673ffffffffffffffffffffffffffffffffffffffff16815260200191505060206040518083038186803b158015610c3b57600080fd5b505afa158015610c4f573d6000803e3d6000fd5b505050506040513d6020811015610c6557600080fd5b8101908080519060200190929190505050610ce8576040517f08c379a000000000000000000000000000000000000000000000000000000000815260040180806020018281038252601d8152602001807f5468652064657374696e6174696f6e206e6f742076657269666965642100000081525060200191505060405180910390fd5b6000823b90506000811115610ddd57600060608473ffffffffffffffffffffffffffffffffffffffff168460405180600001905060006040518083038185875af1925050503d8060008114610d59576040519150601f19603f3d011682016040523d82523d6000602084013e610d5e565b606091505b509150915081610dd6576040517f08c379a000000000000000000000000000000000000000000000000000000000815260040180806020018281038252601c8152602001807f5472616e7366657220746f20636f6e7472616374206661696c6564210000000081525060200191505060405180910390fd5b5050610e25565b8273ffffffffffffffffffffffffffffffffffffffff166108fc839081150290604051600060405180830381858888f19350505050158015610e23573d6000803e3d6000fd5b505b816000803373ffffffffffffffffffffffffffffffffffffffff1673ffffffffffffffffffffffffffffffffffffffff168152602001908152602001600020600101600082825403925050819055506000803373ffffffffffffffffffffffffffffffffffffffff1673ffffffffffffffffffffffffffffffffffffffff168152602001908152602001600020600301600081548092919060010191905055507f421d897469e8811c8ed4a9ff062cab8e93aa8b98f17969366a8125defa905bf03384846000803373ffffffffffffffffffffffffffffffffffffffff1673ffffffffffffffffffffffffffffffffffffffff16815260200190815260200160002060030154604051808573ffffffffffffffffffffffffffffffffffffffff1673ffffffffffffffffffffffffffffffffffffffff1681526020018473ffffffffffffffffffffffffffffffffffffffff1673ffffffffffffffffffffffffffffffffffffffff16815260200183815260200182815260200194505050505060405180910390a1505050565b806000803373ffffffffffffffffffffffffffffffffffffffff1673ffffffffffffffffffffffffffffffffffffffff16815260200190815260200160002060010154101561104c576040517f08c379a000000000000000000000000000000000000000000000000000000000815260040180806020018281038252602e815260200180611311602e913960400191505060405180910390fd5b3373ffffffffffffffffffffffffffffffffffffffff163273ffffffffffffffffffffffffffffffffffffffff1614156110cc573373ffffffffffffffffffffffffffffffffffffffff166108fc829081150290604051600060405180830381858888f193505050501580156110c6573d6000803e3d6000fd5b506111ae565b600060603373ffffffffffffffffffffffffffffffffffffffff168360405180600001905060006040518083038185875af1925050503d806000811461112e576040519150601f19603f3d011682016040523d82523d6000602084013e611133565b606091505b5091509150816111ab576040517f08c379a00000000000000000000000000000000000000000000000000000000081526004018080602001828103825260158152602001807f5472616e73666572206261636b206661696c656421000000000000000000000081525060200191505060405180910390fd5b50505b806000803373ffffffffffffffffffffffffffffffffffffffff1673ffffffffffffffffffffffffffffffffffffffff168152602001908152602001600020600101600082825403925050819055507f28a4660e3acbb00aeacb9de4a40a49c2a7d453f72f7c66fd10f1e77ec0598fe833826000803373ffffffffffffffffffffffffffffffffffffffff1673ffffffffffffffffffffffffffffffffffffffff16815260200190815260200160002060010154604051808473ffffffffffffffffffffffffffffffffffffffff1673ffffffffffffffffffffffffffffffffffffffff168152602001838152602001828152602001935050505060405180910390a15056fe5468652076616c756520666f722073656e64206973206d6f7265207468616e206c6f636b65642076616c756521596f75206e65656420746f20776974686472617720796f757220656e746972652062616c616e636520666972737421546865207265717565737465642076616c7565206973206d6f7265207468616e206c6f636b65642076616c756521a265627a7a723158208dbc05aa2cb4c638fc58d0168b38eb099a2986f9ec2d2ec9c10cd951010f986264736f6c63430005100032",
  "source": "// SPDX-License-Identifier: MIT`\r\n\r\npragma solidity ^0.5.12;\r\n\r\ncontract kycContract{\r\n\r\n    struct account{\r\n\r\n        address accountAddr;\r\n        uint lockedBalance;\r\n        bool kycStatus;\r\n        bool isContract;\r\n        uint txCount;\r\n\r\n    }\r\n\r\n    mapping(address => account) private accountList;\r\n\r\n    event newAccountListed(address newAccountAddress,\r\n                            uint newAccountLockedBalance,\r\n                            bool newAccountkycStatus,\r\n                            bool isContractAccount);\r\n    event balanceUnlocked(address accountAddress,\r\n                            uint unlockedValue,\r\n                            uint lockedBalance);\r\n    event accountRemoved(address accountAddress,\r\n                            uint accountLockedBalance,\r\n                            bool accountKycStatus,\r\n                            bool isContractAccount,\r\n                            uint accountTxCount);\r\n    event accountUpdated(address newAccountAddress,\r\n                            uint newAccountLockedBalance,\r\n                            bool newAccountkycStatus,\r\n                            bool isContractAccount,\r\n                            uint accountTxCount);\r\n    event transferSuccess(address senderAccountAddress,\r\n                            address recieptAccountAddress,\r\n                            uint transferredValue,\r\n                            uint accountTxCount);\r\n\r\n    function addNewAccount(address requester , uint valueToLock) private {\r\n\r\n        if(tx.origin == requester){//To detect the requester is EOA or contract!\r\n        \r\n            accountList[requester] = account(requester,valueToLock,true,false,0);\r\n            emit newAccountListed(requester,valueToLock,true,false);\r\n\r\n        }else{\r\n\r\n            accountList[requester] = account(requester,valueToLock,true,true,0);\r\n            emit newAccountListed(requester,valueToLock,true,true);\r\n\r\n        }\r\n\r\n    }\r\n\r\n    function transferBack(uint backValue) external {\r\n\r\n        require( accountList[msg.sender].lockedBalance >= backValue ,\r\n                \"The requested value is more than locked value!\"\r\n                );\r\n\r\n         if(tx.origin == msg.sender){\r\n\r\n                address(uint160(msg.sender)).transfer(backValue);\r\n\r\n            }else{\r\n\r\n                (bool success,bytes memory returnData) = (msg.sender).call.value(backValue)(\"\");\r\n                require(success , \"Transfer back failed!\");\r\n\r\n            }\r\n\r\n            accountList[msg.sender].lockedBalance -= backValue;\r\n            emit balanceUnlocked(msg.sender,backValue,accountList[msg.sender].lockedBalance);\r\n\r\n    }\r\n\r\n    function removeAccount() external {\r\n\r\n        require( accountList[msg.sender].lockedBalance == 0 ,\r\n                    \"You need to withdraw your entire balance first!\");\r\n        emit accountRemoved(msg.sender,\r\n                            accountList[msg.sender].lockedBalance,\r\n                            accountList[msg.sender].kycStatus,\r\n                            accountList[msg.sender].isContract,\r\n                            accountList[msg.sender].txCount\r\n                            );\r\n\r\n        //this.transferBack(msg.sender,accountList[msg.sender].lockedBalance);\r\n        accountList[msg.sender].accountAddr=0x0000000000000000000000000000000000000000;\r\n        accountList[msg.sender].kycStatus=false;\r\n        accountList[msg.sender].isContract=false;\r\n        accountList[msg.sender].txCount=0;\r\n\r\n    }\r\n\r\n    function userView() external view returns(address,uint,bool,bool,uint){\r\n\r\n        return (accountList[msg.sender].accountAddr,\r\n                accountList[msg.sender].lockedBalance,\r\n                accountList[msg.sender].kycStatus,\r\n                accountList[msg.sender].isContract,\r\n                accountList[msg.sender].txCount\r\n                );\r\n\r\n    }\r\n\r\n    function kycCheck(address target) external view returns(bool){\r\n\r\n        return accountList[target].kycStatus;\r\n\r\n    }\r\n\r\n    function secureTransfer(address destination,uint sendValue) external {\r\n\r\n        require(accountList[msg.sender].lockedBalance >= sendValue ,\r\n                \"The value for send is more than locked value!\");\r\n        require(this.kycCheck(destination) , \"The destination not verified!\");\r\n\r\n        uint destinationSize;\r\n\r\n        assembly {\r\n\r\n            destinationSize := extcodesize(destination)\r\n\r\n        }\r\n\r\n        if( destinationSize > 0 ){\r\n\r\n            (bool success , bytes memory returnData) = destination.call.value(sendValue)(\"\");\r\n            require( success , \"Transfer to contract failed!\");\r\n\r\n        }else{\r\n\r\n            address(uint160(destination)).transfer(sendValue);\r\n\r\n        }\r\n\r\n        accountList[msg.sender].lockedBalance -= sendValue;\r\n        accountList[msg.sender].txCount++;\r\n        emit transferSuccess(msg.sender,destination,sendValue,accountList[msg.sender].txCount);\r\n        \r\n    }\r\n\r\n    function() external payable{\r\n\r\n        addNewAccount(msg.sender,msg.value);\r\n\r\n    }\r\n\r\n}",
  "sourcePath": "E:\\smartContract\\contracts\\kycContract.sol",
  "compiler": {
    "name": "solc",
    "version": "0.5.16+commit.9c3226ce.Emscripten.clang"
  },
  "schemaVersion": "3.4.16",
  "updatedAt": "2024-05-28T14:36:10.856Z",
  "devdoc": {
    "methods": {}
  },
  "userdoc": {
    "methods": {}
  }
}