{
  "contractName": "userContract",
  "abi": [
    {
      "inputs": [],
      "payable": false,
      "stateMutability": "nonpayable",
      "type": "constructor"
    },
    {
      "anonymous": false,
      "inputs": [
        {
          "indexed": false,
          "internalType": "address",
          "name": "kycContractAddress",
          "type": "address"
        },
        {
          "indexed": false,
          "internalType": "uint256",
          "name": "valueToBack",
          "type": "uint256"
        }
      ],
      "name": "getBackValueFromKycContract",
      "type": "event"
    },
    {
      "anonymous": false,
      "inputs": [
        {
          "indexed": false,
          "internalType": "address",
          "name": "kycContractAddress",
          "type": "address"
        },
        {
          "indexed": false,
          "internalType": "uint256",
          "name": "valueToLock",
          "type": "uint256"
        }
      ],
      "name": "registerOnKycContract",
      "type": "event"
    },
    {
      "anonymous": false,
      "inputs": [
        {
          "indexed": false,
          "internalType": "address",
          "name": "kycContractAddress",
          "type": "address"
        }
      ],
      "name": "removeAccountFromKycContract",
      "type": "event"
    },
    {
      "anonymous": false,
      "inputs": [
        {
          "indexed": false,
          "internalType": "address",
          "name": "destination",
          "type": "address"
        },
        {
          "indexed": false,
          "internalType": "uint256",
          "name": "valueToTransfer",
          "type": "uint256"
        }
      ],
      "name": "transferSuccess",
      "type": "event"
    },
    {
      "anonymous": false,
      "inputs": [
        {
          "indexed": false,
          "internalType": "address",
          "name": "kycContractAddress",
          "type": "address"
        },
        {
          "indexed": false,
          "internalType": "address",
          "name": "destinationAddress",
          "type": "address"
        },
        {
          "indexed": false,
          "internalType": "uint256",
          "name": "valueToTransfer",
          "type": "uint256"
        }
      ],
      "name": "transferWithKycContract",
      "type": "event"
    },
    {
      "payable": true,
      "stateMutability": "payable",
      "type": "fallback"
    },
    {
      "constant": false,
      "inputs": [
        {
          "internalType": "address",
          "name": "kycContract",
          "type": "address"
        }
      ],
      "name": "registeringOnKycContract",
      "outputs": [],
      "payable": true,
      "stateMutability": "payable",
      "type": "function"
    },
    {
      "constant": true,
      "inputs": [
        {
          "internalType": "address",
          "name": "kycContract",
          "type": "address"
        }
      ],
      "name": "accountView",
      "outputs": [
        {
          "internalType": "address",
          "name": "",
          "type": "address"
        },
        {
          "internalType": "uint256",
          "name": "",
          "type": "uint256"
        },
        {
          "internalType": "bool",
          "name": "",
          "type": "bool"
        },
        {
          "internalType": "bool",
          "name": "",
          "type": "bool"
        },
        {
          "internalType": "uint256",
          "name": "",
          "type": "uint256"
        }
      ],
      "payable": false,
      "stateMutability": "view",
      "type": "function"
    },
    {
      "constant": true,
      "inputs": [
        {
          "internalType": "address",
          "name": "kycContract",
          "type": "address"
        },
        {
          "internalType": "address",
          "name": "target",
          "type": "address"
        }
      ],
      "name": "kycView",
      "outputs": [
        {
          "internalType": "bool",
          "name": "",
          "type": "bool"
        }
      ],
      "payable": false,
      "stateMutability": "view",
      "type": "function"
    },
    {
      "constant": false,
      "inputs": [
        {
          "internalType": "address",
          "name": "kycContract",
          "type": "address"
        },
        {
          "internalType": "address",
          "name": "destination",
          "type": "address"
        }
      ],
      "name": "delegateTransfer",
      "outputs": [],
      "payable": true,
      "stateMutability": "payable",
      "type": "function"
    },
    {
      "constant": false,
      "inputs": [
        {
          "internalType": "address",
          "name": "kycContract",
          "type": "address"
        },
        {
          "internalType": "address",
          "name": "destination",
          "type": "address"
        }
      ],
      "name": "directTransfer",
      "outputs": [],
      "payable": true,
      "stateMutability": "payable",
      "type": "function"
    },
    {
      "constant": false,
      "inputs": [
        {
          "internalType": "address",
          "name": "kycContract",
          "type": "address"
        },
        {
          "internalType": "uint256",
          "name": "valueToBack",
          "type": "uint256"
        }
      ],
      "name": "getBackValue",
      "outputs": [],
      "payable": false,
      "stateMutability": "nonpayable",
      "type": "function"
    },
    {
      "constant": false,
      "inputs": [
        {
          "internalType": "address",
          "name": "kycContract",
          "type": "address"
        }
      ],
      "name": "removeFromKycContract",
      "outputs": [],
      "payable": false,
      "stateMutability": "nonpayable",
      "type": "function"
    }
  ],
  "bytecode": "0x608060405234801561001057600080fd5b50336000806101000a81548173ffffffffffffffffffffffffffffffffffffffff021916908373ffffffffffffffffffffffffffffffffffffffff160217905550611a81806100606000396000f3fe6080604052600436106100705760003560e01c8063a71d451c1161004e578063a71d451c14610182578063e71e4429146101e6578063eb96ef271461022a578063f85b90e2146102b357610070565b80633a5753381461007257806341f02bbd146100c3578063817421b81461011e575b005b34801561007e57600080fd5b506100c16004803603602081101561009557600080fd5b81019080803573ffffffffffffffffffffffffffffffffffffffff169060200190929190505050610368565b005b3480156100cf57600080fd5b5061011c600480360360408110156100e657600080fd5b81019080803573ffffffffffffffffffffffffffffffffffffffff16906020019092919080359060200190929190505050610901565b005b6101806004803603604081101561013457600080fd5b81019080803573ffffffffffffffffffffffffffffffffffffffff169060200190929190803573ffffffffffffffffffffffffffffffffffffffff169060200190929190505050610bd4565b005b6101e46004803603604081101561019857600080fd5b81019080803573ffffffffffffffffffffffffffffffffffffffff169060200190929190803573ffffffffffffffffffffffffffffffffffffffff169060200190929190505050610fbf565b005b610228600480360360208110156101fc57600080fd5b81019080803573ffffffffffffffffffffffffffffffffffffffff169060200190929190505050611317565b005b34801561023657600080fd5b506102996004803603604081101561024d57600080fd5b81019080803573ffffffffffffffffffffffffffffffffffffffff169060200190929190803573ffffffffffffffffffffffffffffffffffffffff16906020019092919050505061152a565b604051808215151515815260200191505060405180910390f35b3480156102bf57600080fd5b50610302600480360360208110156102d657600080fd5b81019080803573ffffffffffffffffffffffffffffffffffffffff169060200190929190505050611740565b604051808673ffffffffffffffffffffffffffffffffffffffff1673ffffffffffffffffffffffffffffffffffffffff16815260200185815260200184151515158152602001831515151581526020018281526020019550505050505060405180910390f35b338073ffffffffffffffffffffffffffffffffffffffff166000809054906101000a900473ffffffffffffffffffffffffffffffffffffffff1673ffffffffffffffffffffffffffffffffffffffff161461042b576040517f08c379a000000000000000000000000000000000000000000000000000000000815260040180806020018281038252600e8152602001807f4163636573732064656e6965642100000000000000000000000000000000000081525060200191505060405180910390fd5b60008060008060003073ffffffffffffffffffffffffffffffffffffffff1663f85b90e2336040518263ffffffff1660e01b8152600401808273ffffffffffffffffffffffffffffffffffffffff1673ffffffffffffffffffffffffffffffffffffffff16815260200191505060a06040518083038186803b1580156104b057600080fd5b505afa1580156104c4573d6000803e3d6000fd5b505050506040513d60a08110156104da57600080fd5b81019080805190602001909291908051906020019092919080519060200190929190805190602001909291908051906020019092919050505094509450945094509450600084146106e357600060608873ffffffffffffffffffffffffffffffffffffffff1686604051602401808281526020019150506040516020818303038152906040527f1d7876e7000000000000000000000000000000000000000000000000000000007bffffffffffffffffffffffffffffffffffffffffffffffffffffffff19166020820180517bffffffffffffffffffffffffffffffffffffffffffffffffffffffff83818316178352505050506040518082805190602001908083835b6020831061060157805182526020820191506020810190506020830392506105de565b6001836020036101000a0380198251168184511680821785525050505050509050019150506000604051808303816000865af19150503d8060008114610663576040519150601f19603f3d011682016040523d82523d6000602084013e610668565b606091505b5091509150816106e0576040517f08c379a000000000000000000000000000000000000000000000000000000000815260040180806020018281038252601c8152602001807f43616c6c20746f206b796320636f6e7472616374206661696c6564210000000081525060200191505060405180910390fd5b50505b600060608873ffffffffffffffffffffffffffffffffffffffff166040516024016040516020818303038152906040527f75beca08000000000000000000000000000000000000000000000000000000007bffffffffffffffffffffffffffffffffffffffffffffffffffffffff19166020820180517bffffffffffffffffffffffffffffffffffffffffffffffffffffffff83818316178352505050506040518082805190602001908083835b602083106107b45780518252602082019150602081019050602083039250610791565b6001836020036101000a0380198251168184511680821785525050505050509050019150506000604051808303816000865af19150503d8060008114610816576040519150601f19603f3d011682016040523d82523d6000602084013e61081b565b606091505b509150915081610893576040517f08c379a000000000000000000000000000000000000000000000000000000000815260040180806020018281038252601c8152602001807f43616c6c20746f206b796320636f6e7472616374206661696c6564210000000081525060200191505060405180910390fd5b7f21360fda5144ca2ffcbbde6c2a2adfca590ed225422549f3d8cae2f881309d1889604051808273ffffffffffffffffffffffffffffffffffffffff1673ffffffffffffffffffffffffffffffffffffffff16815260200191505060405180910390a1505050505050505050565b338073ffffffffffffffffffffffffffffffffffffffff166000809054906101000a900473ffffffffffffffffffffffffffffffffffffffff1673ffffffffffffffffffffffffffffffffffffffff16146109c4576040517f08c379a000000000000000000000000000000000000000000000000000000000815260040180806020018281038252600e8152602001807f4163636573732064656e6965642100000000000000000000000000000000000081525060200191505060405180910390fd5b600060608473ffffffffffffffffffffffffffffffffffffffff1684604051602401808281526020019150506040516020818303038152906040527feae7236f000000000000000000000000000000000000000000000000000000007bffffffffffffffffffffffffffffffffffffffffffffffffffffffff19166020820180517bffffffffffffffffffffffffffffffffffffffffffffffffffffffff83818316178352505050506040518082805190602001908083835b60208310610aa05780518252602082019150602081019050602083039250610a7d565b6001836020036101000a0380198251168184511680821785525050505050509050019150506000604051808303816000865af19150503d8060008114610b02576040519150601f19603f3d011682016040523d82523d6000602084013e610b07565b606091505b509150915081610b62576040517f08c379a000000000000000000000000000000000000000000000000000000000815260040180806020018281038252602c815260200180611a21602c913960400191505060405180910390fd5b7f4690b724b07f7f31003a144294070c4ad982cb9a02c200c33fd0c3fc6c4a177b8585604051808373ffffffffffffffffffffffffffffffffffffffff1673ffffffffffffffffffffffffffffffffffffffff1681526020018281526020019250505060405180910390a15050505050565b338073ffffffffffffffffffffffffffffffffffffffff166000809054906101000a900473ffffffffffffffffffffffffffffffffffffffff1673ffffffffffffffffffffffffffffffffffffffff1614610c97576040517f08c379a000000000000000000000000000000000000000000000000000000000815260040180806020018281038252600e8152602001807f4163636573732064656e6965642100000000000000000000000000000000000081525060200191505060405180910390fd5b60003073ffffffffffffffffffffffffffffffffffffffff1663eb96ef2785856040518363ffffffff1660e01b8152600401808373ffffffffffffffffffffffffffffffffffffffff1673ffffffffffffffffffffffffffffffffffffffff1681526020018273ffffffffffffffffffffffffffffffffffffffff1673ffffffffffffffffffffffffffffffffffffffff1681526020019250505060206040518083038186803b158015610d4a57600080fd5b505afa158015610d5e573d6000803e3d6000fd5b505050506040513d6020811015610d7457600080fd5b8101908080519060200190929190505050905080610dfa576040517f08c379a000000000000000000000000000000000000000000000000000000000815260040180806020018281038252601d8152602001807f5468652064657374696e6174696f6e206e6f742076657269666965642100000081525060200191505060405180910390fd5b6000833b90506000811415610e6b578373ffffffffffffffffffffffffffffffffffffffff1673ffffffffffffffffffffffffffffffffffffffff166108fc349081150290604051600060405180830381858888f19350505050158015610e65573d6000803e3d6000fd5b50610f4d565b600060608573ffffffffffffffffffffffffffffffffffffffff163460405180600001905060006040518083038185875af1925050503d8060008114610ecd576040519150601f19603f3d011682016040523d82523d6000602084013e610ed2565b606091505b509150915081610f4a576040517f08c379a00000000000000000000000000000000000000000000000000000000081526004018080602001828103825260108152602001807f5472616e73666572206661696c6564210000000000000000000000000000000081525060200191505060405180910390fd5b50505b7fa27e6dbb19599b1ad50eff1ba2a549c8548a0ddd4e873795a7de7ada6b2f4ecd8434604051808373ffffffffffffffffffffffffffffffffffffffff1673ffffffffffffffffffffffffffffffffffffffff1681526020018281526020019250505060405180910390a15050505050565b338073ffffffffffffffffffffffffffffffffffffffff166000809054906101000a900473ffffffffffffffffffffffffffffffffffffffff1673ffffffffffffffffffffffffffffffffffffffff1614611082576040517f08c379a000000000000000000000000000000000000000000000000000000000815260040180806020018281038252600e8152602001807f4163636573732064656e6965642100000000000000000000000000000000000081525060200191505060405180910390fd5b600060608473ffffffffffffffffffffffffffffffffffffffff168434604051602401808373ffffffffffffffffffffffffffffffffffffffff1673ffffffffffffffffffffffffffffffffffffffff168152602001828152602001925050506040516020818303038152906040527fd8d1f38f000000000000000000000000000000000000000000000000000000007bffffffffffffffffffffffffffffffffffffffffffffffffffffffff19166020820180517bffffffffffffffffffffffffffffffffffffffffffffffffffffffff83818316178352505050506040518082805190602001908083835b60208310611192578051825260208201915060208101905060208303925061116f565b6001836020036101000a0380198251168184511680821785525050505050509050019150506000604051808303816000865af19150503d80600081146111f4576040519150601f19603f3d011682016040523d82523d6000602084013e6111f9565b606091505b509150915081611271576040517f08c379a000000000000000000000000000000000000000000000000000000000815260040180806020018281038252601c8152602001807f43616c6c20746f206b796320636f6e7472616374206661696c6564210000000081525060200191505060405180910390fd5b7f79342f8b55df85779b6d1d5197758aa08e820347b6f9a9a44d94b9dbf62ddfbb858534604051808473ffffffffffffffffffffffffffffffffffffffff1673ffffffffffffffffffffffffffffffffffffffff1681526020018373ffffffffffffffffffffffffffffffffffffffff1673ffffffffffffffffffffffffffffffffffffffff168152602001828152602001935050505060405180910390a15050505050565b338073ffffffffffffffffffffffffffffffffffffffff166000809054906101000a900473ffffffffffffffffffffffffffffffffffffffff1673ffffffffffffffffffffffffffffffffffffffff16146113da576040517f08c379a000000000000000000000000000000000000000000000000000000000815260040180806020018281038252600e8152602001807f4163636573732064656e6965642100000000000000000000000000000000000081525060200191505060405180910390fd5b600060608373ffffffffffffffffffffffffffffffffffffffff163460405180600001905060006040518083038185875af1925050503d806000811461143c576040519150601f19603f3d011682016040523d82523d6000602084013e611441565b606091505b5091509150816114b9576040517f08c379a00000000000000000000000000000000000000000000000000000000081526004018080602001828103825260208152602001807f5265676973746572206f6e206b796320636f6e7472616374206661696c65642181525060200191505060405180910390fd5b7f79f117740801af0599f65db99000107a8feefedbf01c857c11e880f9251ca6ed8434604051808373ffffffffffffffffffffffffffffffffffffffff1673ffffffffffffffffffffffffffffffffffffffff1681526020018281526020019250505060405180910390a150505050565b60008060608473ffffffffffffffffffffffffffffffffffffffff1684604051602401808273ffffffffffffffffffffffffffffffffffffffff1673ffffffffffffffffffffffffffffffffffffffff1681526020019150506040516020818303038152906040527f9b0763e8000000000000000000000000000000000000000000000000000000007bffffffffffffffffffffffffffffffffffffffffffffffffffffffff19166020820180517bffffffffffffffffffffffffffffffffffffffffffffffffffffffff83818316178352505050506040518082805190602001908083835b602083106116335780518252602082019150602081019050602083039250611610565b6001836020036101000a038019825116818451168082178552505050505050905001915050600060405180830381855afa9150503d8060008114611693576040519150601f19603f3d011682016040523d82523d6000602084013e611698565b606091505b509150915081611710576040517f08c379a000000000000000000000000000000000000000000000000000000000815260040180806020018281038252601c8152602001807f43616c6c20746f206b796320636f6e7472616374206661696c6564210000000081525060200191505060405180910390fd5b80806020019051602081101561172557600080fd5b81019080805190602001909291905050509250505092915050565b6000806000806000338073ffffffffffffffffffffffffffffffffffffffff166000809054906101000a900473ffffffffffffffffffffffffffffffffffffffff1673ffffffffffffffffffffffffffffffffffffffff161461180b576040517f08c379a000000000000000000000000000000000000000000000000000000000815260040180806020018281038252600e8152602001807f4163636573732064656e6965642100000000000000000000000000000000000081525060200191505060405180910390fd5b600060608873ffffffffffffffffffffffffffffffffffffffff166040516024016040516020818303038152906040527f2517880c000000000000000000000000000000000000000000000000000000007bffffffffffffffffffffffffffffffffffffffffffffffffffffffff19166020820180517bffffffffffffffffffffffffffffffffffffffffffffffffffffffff83818316178352505050506040518082805190602001908083835b602083106118dc57805182526020820191506020810190506020830392506118b9565b6001836020036101000a038019825116818451168082178552505050505050905001915050600060405180830381855afa9150503d806000811461193c576040519150601f19603f3d011682016040523d82523d6000602084013e611941565b606091505b5091509150816119b9576040517f08c379a000000000000000000000000000000000000000000000000000000000815260040180806020018281038252601c8152602001807f43616c6c20746f206b796320636f6e7472616374206661696c6564210000000081525060200191505060405180910390fd5b8080602001905160a08110156119ce57600080fd5b810190808051906020019092919080519060200190929190805190602001909291908051906020019092919080519060200190929190505050849450975097509750975097505050509193959092945056fe47657474696e67206261636b2076616c75652066726f6d206b796320636f6e7472616374206661696c656421a265627a7a72315820accf489580c96d0975963c480cef496c19986cba4ff57529505124d2826590d764736f6c63430005100032",
  "source": "// SPDX-License-Identifier: MIT`\r\n\r\npragma solidity ^0.5.12;\r\n\r\ncontract userContract{\r\n\r\n    address owner;\r\n\r\n    event registerOnKycContract( address kycContractAddress , uint valueToLock );\r\n    event getBackValueFromKycContract( address kycContractAddress , uint valueToBack );\r\n    event removeAccountFromKycContract( address kycContractAddress);\r\n    event transferWithKycContract( address kycContractAddress , address destinationAddress, uint valueToTransfer );\r\n    event transferSuccess( address destination , uint valueToTransfer );\r\n\r\n    modifier onlyOwner( address requester ){\r\n\r\n        require( owner == requester , \"Access denied!\" );\r\n        _;\r\n\r\n    }\r\n\r\n    constructor() public {\r\n\r\n        owner = msg.sender;\r\n\r\n    }\r\n\r\n    function registeringOnKycContract(address kycContract) external payable onlyOwner(msg.sender) {\r\n\r\n        (bool success , bytes memory returnData) = kycContract.call.value(msg.value)(\"\");\r\n        require( success , \"Register on kyc contract failed!\");\r\n        emit registerOnKycContract( kycContract , msg.value);\r\n\r\n    }\r\n\r\n    function accountView( address kycContract) external view onlyOwner( msg.sender ) returns( address , uint , bool , bool , uint ){\r\n\r\n        ( bool success , bytes memory returnData ) = kycContract.staticcall( abi.encodeWithSignature(\"userView()\") );\r\n        require( success , \"Call to kyc contract failed!\" );\r\n        return ( abi.decode( returnData , ( address , uint , bool , bool , uint) ) );\r\n\r\n    }\r\n\r\n    function kycView( address kycContract , address target ) external view returns(bool) {\r\n\r\n    ( bool success , bytes memory returnData ) = kycContract.staticcall( abi.encodeWithSignature( \"kycCheck(address)\" , target ) );\r\n    require( success , \"Call to kyc contract failed!\");\r\n    return ( abi.decode( returnData , (bool)) );\r\n\r\n    }\r\n\r\n    function delegateTransfer( address kycContract , address destination) external payable onlyOwner( msg.sender ) {\r\n\r\n        ( bool success , bytes memory returnData ) = kycContract.call( abi.encodeWithSignature( \"secureTransfer(address,uint256)\" , destination , msg.value) );\r\n        require( success , \"Call to kyc contract failed!\");\r\n        emit transferWithKycContract( kycContract , destination , msg.value );\r\n\r\n    }\r\n\r\n    function directTransfer( address kycContract , address destination ) external payable onlyOwner( msg.sender ) {\r\n\r\n        bool kycResult = this.kycView( kycContract , destination );\r\n        require( kycResult , \"The destination not verified!\" );\r\n\r\n        uint destinationSize;\r\n\r\n        assembly {\r\n\r\n            destinationSize := extcodesize( destination )\r\n\r\n        }\r\n\r\n        if( destinationSize == 0){\r\n\r\n            address(uint(destination)).transfer( msg.value );\r\n\r\n        }else{\r\n\r\n            ( bool success , bytes memory returnData ) = destination.call.value( msg.value )(\"\");\r\n            require( success , \"Transfer failed!\" );\r\n\r\n        }\r\n\r\n    emit transferSuccess( destination , msg.value );\r\n\r\n    }\r\n\r\n    function getBackValue( address kycContract , uint valueToBack ) external onlyOwner(msg.sender) {\r\n\r\n        ( bool success , bytes memory returnData ) = kycContract.call( abi.encodeWithSignature(\"transferBack(uint256)\",valueToBack));\r\n        require( success , \"Getting back value from kyc contract failed!\");\r\n        emit getBackValueFromKycContract( kycContract , valueToBack );\r\n\r\n    }\r\n\r\n    function removeFromKycContract( address kycContract ) external onlyOwner(msg.sender) {\r\n\r\n        ( address accountAddr , uint lockedBalance , bool kycStatus , bool isContract , uint txCount ) =\r\n            this.accountView(msg.sender);\r\n\r\n        if( lockedBalance != 0 ){\r\n\r\n            ( bool success , bytes memory returnData ) = kycContract.call( abi.encodeWithSignature( \"transferBack()\" , lockedBalance ) );\r\n            require( success , \"Call to kyc contract failed!\" );\r\n\r\n        }\r\n\r\n        ( bool success , bytes memory returnData ) = kycContract.call( abi.encodeWithSignature( \"removeAccount()\" ) );\r\n        require( success , \"Call to kyc contract failed!\" );\r\n        emit removeAccountFromKycContract( kycContract );\r\n\r\n    }\r\n\r\n    function() external payable {}\r\n\r\n}",
  "sourcePath": "E:\\smartContract\\contracts\\userContract.sol",
  "compiler": {
    "name": "solc",
    "version": "0.5.16+commit.9c3226ce.Emscripten.clang"
  },
  "schemaVersion": "3.4.16",
  "updatedAt": "2024-05-28T14:36:12.152Z",
  "networkType": "ethereum",
  "devdoc": {
    "methods": {}
  },
  "userdoc": {
    "methods": {}
  }
}